:020000040000FA
:040000008031102813
:100008007E1480312E000F1C0A280B280E288A31F6
:10001800DB2280317E100900803112284B308400A9
:10002800003085001F308931EB2180317E1020009F
:100038008A316C2A2000BF003F082100A000200858
:100048002000BC003F08013E2100A000200820003D
:10005800BD003F08023E2100A00020082000BE008D
:100068003F08033E8600870101080F392100A000E0
:1000780020082000BB003B08031943284428CF2A46
:10008800A72A20003E0886008701011E4C284D281B
:100098005A283F08033E8600870101308102B001DB
:1000A800B10100308731B3278031CF2AB001B101C7
:1000B80002308731B3278031CF2A20003F08043E21
:1000C80086008701403F2100A000413FA100423F38
:1000D800A200433FA30020003F080D3E8600870191
:1000E800403F2100A400413FA500423FA600433FF6
:1000F800A7002008A4022108A53B2208A63B230844
:10010800A73B2708031D93282608031D9328F530CD
:1001180024020130253B031C922893289B282000A9
:100128003F08033E8600870101308102CF2A200064
:10013800B001B10102308731B3278031CF2A2000C6
:100148003F08043E86008701403F2100A000413F50
:10015800A100423FA200433FA30020003F080D3EFC
:1001680086008701403F2100A400413FA500423F8F
:10017800A600433FA7002008A4022108A53B2208A7
:10018800A63B2308A73B2708031DD5282608031DDF
:10019800D528E93024020330253B031CD428D52870
:1001A800DD2820003F08033E8600870101308102D8
:1001B800CF2A20003D0886008701011EE428E52893
:1001C800EC283F08033E8600870102308102CF2ACF
:1001D80002302100A00020082000B000B101023048
:1001E8008731B3278031CF2A20003D088600870158
:1001F800011EFF28002907293F08033E86008701C2
:1002080001308102CF2A02302100A00020082000FE
:10021800B000B10100308731B3278031CF2A2000E8
:100228003E0886008701011E1A291B2928293F0834
:10023800033E8600870101308102B001B101003020
:100248008731B3278031CF2AB001B101023087311D
:10025800B3278031CF2A20003B082100A000A1014C
:100268002108003A03193929CF2A2008013A03192D
:100278001329033A0319F828013A0319A328073A5E
:1002880003196128CF2A20003C0886008701811EB7
:100298004E294F295C293F08033E8600870101301B
:1002A8008102B001B10100308731B3278031CF2AF4
:1002B800B00103302100A00020082000B100003068
:1002C8008731B3278031CF2A20003C088600870178
:1002D800011E6F2970297D293F08033E860087018A
:1002E80001308102B001B10100308731B32780317C
:1002F800CF2AB00102302100A00020082000B10060
:1003080000308731B3278031CF2A023020003B06E6
:10031800031D8F299029B1293D0886008701811A7C
:10032800962997299E293E0886008701811E9D29C6
:100338009E29A5293F08033E8600870101308102D6
:10034800CF2A03302100A00020082000B000B1010E
:1003580003308731B3278031CF2A3B03031DB529EA
:10036800B629CF2A3E0886008701811EBC29BD29EF
:10037800CA293F08033E8600870101308102B00187
:10038800B10100308731B3278031CF2AB001B101E4
:1003980003308731B3278031CF2A20003F08043E3D
:1003A80086008701403F2100A000413FA100423F55
:1003B800A200433FA30020003F080D3E86008701AE
:1003C800403F2100A400413FA500423FA600433F13
:1003D800A7002008A4022108A53B2208A63B230861
:1003E800A73B2708031D032A2608031D032A2D30CF
:1003F80024020130253B031C022A032A0B2A200071
:100408003F08033E8600870101308102CF2A200081
:10041800B001B10103308731B3278031CF2A2000E2
:100428003F08043E86008701403F2100A000413F6D
:10043800A100423FA200433FA30020003F080D3E19
:1004480086008701403F2100A400413FA500423FAC
:10045800A600433FA7002008A4022108A53B2208C4
:10046800A63B2308A73B2708031D452A2608031D8A
:10047800452A593024020230253B031C442A452AC8
:100488004D2A20003F08033E860087010130810283
:10049800CF2A0330A00020082000B000B1010330AB
:1004A8008731B3278031CF2A20003D088600870195
:1004B800811E5F2A602A672A3F08033E860087015B
:1004C80001308102CF2A03302100A000200820003B
:1004D800B000B10100308731B3278031CF2A200026
:1004E8003E0886008701811E7A2A7B2A882A3F08CF
:1004F800033E8600870101308102B001B10100305E
:100508008731B3278031CF2AB001B1010330873159
:10051800B3278031CF2A20003B082100A000A10189
:100528002108003A0319992ACF2A2008013A031909
:10053800732A033A0319582A013A0319132A073A66
:100548000319D129CF2A3F08033E860087010108F5
:100558002100A0000430A036890BAF2A20080F39EB
:10056800A100A2012208003A0319BB2ACF2A2108B8
:10057800013A03194528033A03192F29013A0319A7
:100588004729073A03196829013A03198929033ABF
:1005980003198F2ACF2A20003F08083E86008701CA
:1005A800811FD72AD82A7E2B3F08083E860087015C
:1005B80001080F390319E12AE22A6C2B3F08083E8B
:1005C80086008701011FE92AEA2AF72AB601B60A36
:1005D800FF302100A00020082000B700013083313F
:1005E800F4238031022BB601FF302100A00020083F
:1005F8002000B70001308331F423803120003F0808
:10060800083E86008701811A0A2B0D2B20001A1537
:100618000F2B20001A113F08093E86008701403F32
:100628002100A000413FA100423FA200433FA30098
:1006380020003F080D3E86008701403F2100A400AE
:10064800413FA500423FA600433FA7002008A4025F
:100658002108A53B2208A63B2308A73B2708031D22
:10066800412B2608031D412B2508031D412BFB3078
:100678002402031C402B412B7E2B20003F08083E00
:1006880086008701811E492B4A2B7E2B3F08083E96
:1006980086008701013081023F080D3E86008701F0
:1006A800403F2100A000413FA100423FA200433F3C
:1006B800A30020003F08093E86008701210020088A
:1006C800C03F2108C13F2208C23F2308C33F7E2BF9
:1006D8007F302100A00020003F08083E86008701E7
:1006E8002100200881052000B601B70101308331BF
:1006F800F423803120003C0886008701011F852BE8
:10070800862B8D2B3C0886008701811A8C2B8D2B1C
:100718009B2B3C0886008701011B932B942BA52B50
:100728003C0886008701011E9A2B9B2BA52B7F3046
:100738002100A00020003C08860087012100200835
:10074800810520003D0886008701011FAC2BAD2BD9
:10075800B42B3D0886008701811AB32BB42BC22B1A
:100768003D0886008701011BBA2BBB2BCC2B3D080B
:1007780086008701011EC12BC22BCC2B7F302100A4
:10078800A00020003D08860087012100200881057F
:1007980020003E0886008701011FD32BD42BDB2BBA
:1007A8003E0886008701811ADA2BDB2BE92B3E08ED
:1007B80086008701011BE12BE22BF32B3E08860004
:1007C8008701011EE82BE92BF32B7F302100A000C5
:1007D80020003E08860087012100200881050800C6
:1007E8002000BA003608031DFA2BFC2B0130FD2B24
:1007F8000030B8003808B6003A084F3E8600870136
:1008080001083606031D092C0A2C142C3A084B3E05
:1008180086008701010837060319132C142C662D4E
:100828003608B8003A084F3E86008701380881002C
:100838003708B8003A084B3E86008701380881001F
:10084800502D5530B800380893040930B8003808DE
:10085800B00036080319312C332C0130342C003009
:100868008A31362283313E00A600A20109302000D9
:10087800B8003808B00036088A31362283313E0085
:10088800A400A0012000360803194B2C4E2C200090
:100898001817502C20001813360C031C18110318B5
:1008A8001815360C031C18120318181636080319E5
:1008B8005E2C612C20001814632C200018103708B7
:1008C800B8003808B00001308B31E9238331AA30F1
:1008D8002000B80038089305662DAA30B8003808FB
:1008E80093040A30B8003808B000360803197D2C84
:1008F8007F2C0130802C00308A31362283313E0033
:10090800A700A3010A302000B8003808B000360854
:100918008A31362283313E00A500A1012000360825
:100928000319972C9A2C200098179C2C20009813B8
:10093800360C031C981103189815360C031C9812D2
:100948000318981636080319AA2CAD2C2000981401
:10095800AF2C200098103708B8003808B0000230D3
:100968008B31E923833155302000B80038089305CE
:10097800662D5530B800380894040B30B800380894
:10098800B00036080319C92CCB2C0130CC2C003010
:100998008A31362283313E00AC00A8010B3020009A
:1009A800B8003808B00036088A31362283313E0054
:1009B800AE00AA01200036080319E32CE62C20001B
:1009C8001916E82C20001912360C031C19100318EC
:1009D8001914360C031C19130318191736080319B0
:1009E800F62CF92C20001915FB2C200019113708BA
:1009F800B8003808B00003308B31E9238331AA30BE
:100A08002000B80038089405662D5530B80038081D
:100A180094040C30B8003808B00036080319152DB6
:100A2800172D0130182D00308A31362283313E00CF
:100A3800AD00A9010C302000B8003808B000360815
:100A48008A31362283313E00AF00AB0120003608E0
:100A580003192F2D322D20009916342D20009912BC
:100A6800360C031C991003189914360C031C99139F
:100A78000318991736080319422D452D200099159A
:100A8800472D200099113708B8003808B000043005
:100A98008B31E9238331032D3A08B800B9013908AD
:100AA800003A0319582D662D3808013A0319252CE8
:100AB800033A0319712C013A0319BD2C073A03199B
:100AC800092D662D0800FA007608031D6C2D6E2D81
:100AD80001306F2D0030F8007808F6007A084F3E94
:100AE8008600870101087606031D7B2D7C2D862D47
:100AF8007A084B3E86008701010877060319852D81
:100B0800862DD42E7608F8007A084F3E8600870195
:100B1800780881007708F8007A084B3E860087013C
:100B280078088100BE2E5530F8007808200093041C
:100B38000930F8007808F00076080319A42DA62DCE
:100B48000130A72D00308A310B2285313E00A600E6
:100B5800A2010930F8007808F00076088A310B22E3
:100B680085313E00A400A00176080319BC2DBF2DD5
:100B780020001817C12D20001813760C031C18111B
:100B880003181815760C031C181203181816760883
:100B98000319CF2DD22D20001814D42D20001810A1
:100BA8007708F8007808F00001308B3195238531FB
:100BB800AA30F800780820009305D42EAA30F8004F
:100BC8007808200093040A30F8007808F0007608C6
:100BD8000319EF2DF12D0130F22D00308A310B224F
:100BE80085313E00A700A3010A30F8007808F0001C
:100BF80076088A310B2285313E00A500A1017608CE
:100C08000319072E0A2E200098170C2E200098137F
:100C1800760C031C981103189815760C031C98126F
:100C280003189816760803191A2E1D2E20009814FA
:100C38001F2E200098107708F8007808F00002307E
:100C48008B31952385315530F800780820009305BD
:100C5800D42E5530F8007808200094040B30F800A2
:100C68007808F000760803193A2E3C2E01303D2E04
:100C780000308A310B2285313E00AC00A8010B30D0
:100C8800F8007808F00076088A310B2285313E009A
:100C9800AE00AA0176080319522E552E2000191607
:100CA800572E20001912760C031C1910031819145A
:100CB800760C031C19130318191776080319652EE7
:100CC800682E200019156A2E200019117708F800DF
:100CD8007808F00003308B3195238531AA30F8006D
:100CE800780820009405D42E5530F80078082000A4
:100CF80094040C30F8007808F00076080319852E63
:100D0800872E0130882E00308A310B2285313E0033
:100D1800AD00A9010C30F8007808F00076088A3197
:100D28000B2285313E00AF00AB01760803199D2EDA
:100D3800A02E20009916A22E20009912760C031CD2
:100D4800991003189914760C031C99130318991712
:100D580076080319B02EB32E20009915B52E200061
:100D680099117708F8007808F00004308B31952342
:100D78008531722E7A08F800F9017908003A0319CA
:100D8800C62ED42E7808013A0319972D033A031971
:100D9800E22D013A03192D2E073A0319782ED42E85
:100DA8000800F900200055087906031DDC2EDD2E09
:100DB800E92E54087606031DE22EE32EE92E530889
:100DC80076060319E82EE92EB22F7908F70077087E
:100DD800D5007608F7007708D4007608F70077087A
:100DE800D3009C2F3F30F700770891040D303E0068
:100DF8009000233091000E3092009301223094002D
:100E08009501C030F70077082000960507302D00BF
:100E18008D007608F7007708F00005308B319523B0
:100E280086317608F7007708F00006308B31952375
:100E38008631F530F7007708F00007308B319523BD
:100E48008631C030F700770820009105B22F3F3077
:100E5800F7007708910405302D008D0006302C002E
:100E68008D0023303E009000910102309200223024
:100E78009300940101309500C030F70077082000F6
:100E8800960596147608F7007708F00005308B3140
:100E9800952386317608F7007708F00006308B3105
:100EA80095238631C030F700770820009105B22FCE
:100EB8003F30F7007708910405302D008D003E0083
:100EC8009001233091002330920093019401223045
:100ED8009500C030F70077082000960516147608AC
:100EE800F7007708F00005308B3195238631252FE0
:100EF8003F30F7007708910405302D008D0023302E
:100F08003E0090002330910092012230930094011A
:100F18009501C030F7007708200096051615760869
:100F2800F7007708F00005308B3195238631252F9F
:100F38007908F700F8017808003A0319A42FB22FAE
:100F48007708003A0319F62E013A03192B2F033AB2
:100F580003195C2F013A03197C2FB22F08002000D7
:100F6800B4003408B2000530B235FF3E031DB82F77
:100F78003235B3003308DB043409B2000530B2352A
:100F8800FF3E031DC32F3235FF3AB3003308DB059C
:100F98003008B2000530B235FF3E031DCF2F323581
:100FA800B3003308DA043009B2000530B235FF3E29
:100FB800031DDA2F3235FF3AB3003308DA0531085A
:100FC800B2000530B235FF3E031DE62F3235B300BF
:100FD8003308D9043109B2000530B235FF3E031D8C
:0E0FE800F12F3235FF3AB3003308D905080067
:1013D600640080010131890BEC2900346030310052
:1013E6008D0006309300C0308B002E0019140800C3
:1013F600903020009E004B309F0001302500900069
:101406008E010130240094009501013097000800F8
:10141600F300F201731C102A112A152A7008F10034
:101426007108F2070310F00D0310F30C7308031D87
:101436001D2A1E2A0D2A72080800403023008F003C
:1014460026309000013091002B30920032308D0012
:101456000E303D00C5000F30C60014303E009E0021
:1014660015309F0008002000B300B201331C3C2A4F
:101476003D2A412A3008B1003108B2070310B00DE9
:101486000310B30C3308031D492A4A2A392A3208A5
:1014960008002100A80028088E3121268A31210063
:1014A60028088D3110258A31210028088E31212601
:1014B6008A312100280880311E208A31210028081F
:1014C6008E3121268A31210028088D3193258A31D3
:1014D60008008931F1218A318A318D228A31893198
:1014E600FB218A318C313E248A318A3120228A318D
:1014F60020009D019C010030E9000030E80000302A
:10150600E7000030E60059308A314C228A31862ABB
:1015160080311028200096019701980199019A01BF
:101526003E00BC01C701E801C03020009100CF3069
:1015360092009301940103309500C0303E00B9003B
:10154600CF30C400CF01DA010730E500B801C3018E
:10155600CE01D9010130E40008002000A0000F30C0
:101566002005FB002008FC000130FC35FF3E031D72
:10157600B82A7C35C0397B07FD007D08E100201FB5
:10158600C52AC62AD12AF601F60AFF30FB007B08D7
:10159600F7000130853167258A31DA2AF601FF30F6
:1015A600FB007B08F7000130853167258A3108008A
:1015B6002E000F1023000C082000AE002E08AF00EE
:1015C6002300921FE72AE82AF62A8F1EEB2AEC2A26
:1015D600072B0F19EF2AF02A072B20002F088B3133
:1015E60042238A31072B8F1AF92AFA2A072B200061
:1015F600D80123000F19002B012B042B2000D70143
:10160600072B8B310B238A31230091121016080009
:10161600232B5B0823008C00412B5A0823008C00E7
:10162600412B590823008C00412B610823008C00B4
:10163600412B5C0823008C00412B23008C01412B9D
:10164600200057080F39F000F1017108003A03191C
:101656002D2B202B7008003A03190C2B013A031985
:10166600102B033A0319142B013A0319182B073AC6
:1016760003191C2B013A0319182B202B08002000F4
:10168600AD00812B2D08AA002A08D7005708031D94
:101696004D2B4E2B4F2B1A15D801D80A942B2D08FB
:1016A600AA002A08D6005608AA002A08A200FF3077
:1016B600A300FF30A40057088C319F248B310230E1
:1016C6002000AA002A08D800942B5608AA002A0847
:1016D600A2002D08AB00AC012B08A3002C08A40027
:1016E60057088C319F248B312000D801942BD801C8
:1016F600D80A2D08AA002A08D700942B5808AA0051
:10170600AB012B08003A0319892B7A2B2A08003AD9
:101716000319452B013A0319522B033A0319682B77
:101726007A2B0800F300FB307002031C9B2B9C2BCA
:10173600A12BFA30F4000030F500A82B7008F10058
:10174600F2017108F4007208F5007408F1007108DE
:10175600F000C92B700826008D00E82B70082600C3
:101766009100E82B700826009500E82B70082600EB
:101776009900E82B700826009D00E82B70082700CA
:101786008D00E82B700827009100E82B7308F10004
:10179600F2017208003A0319D12BE82B7108013ABD
:1017A6000319AD2B033A0319B12B013A0319B52BD3
:1017B600073A0319B92B013A0319BD2B033A03194A
:1017C600C12B013A0319C52BE82B08002000B300F2
:1017D600FB303002031CF02BF12BF62BFA30B40051
:1017E6000030B500FD2B3008B100B2013108B4005D
:1017F6003208B5003408B1003108B0001E2C30089C
:1018060026008D003D2C3008260091003D2C300826
:10181600260095003D2C3008260099003D2C300806
:1018260026009D003D2C300827008D003D2C3008F9
:10183600270091003D2C3308B100B2013208003A6E
:101846000319262C3D2C3108013A0319022C033AC0
:101856000319062C013A03190A2C073A03190E2C10
:10186600013A0319122C033A0319162C013A0319EB
:101876001A2C3D2C0800FF3025008D009F302600D5
:101886008E009F3092009F3096009F309A009F30C6
:101896009E0027008E01920126008C019001940182
:1018A60098019C0127008C01900126008D01910171
:1018B600950199019D0127008D01FA3091000430B0
:1018C6002D009000910110308E0010308F008C0199
:1018D60007308D009017101704302C0090009101EE
:1018E60010308E0010308F008C0107308D0090175D
:1018F60010173C0090012A3092002A309300910183
:1019060002309600083097009801990190179A01C5
:101916002B309C002B309D009B010230A00008302C
:10192600A100A201A3019A172E00901025008E1780
:1019360027008E17921708002000A90029080739EA
:10194600A5002508A7002908A5000330A536890BA0
:10195600A92C25080739A6002608A800A41BB42C24
:10196600B52CC22C2208A5002508F6002308A600DF
:101976002608F70027088E31B2268C310F2D291F35
:10198600C52CC62CD42CA91AC92CCA2CCF2C290894
:101996008F314A278C310F2D29088A31B0228C319C
:1019A6000F2D290838390319D92CDA2C072D1A11CD
:1019B6002803031DDF2CE02CE22C6116FA2C0230E2
:1019C6002806031DE72CE82CEA2CDB15FA2C03303D
:1019D6002806031DEF2CF02CF22CDA15FA2C043015
:1019E6002806031DF72CF82CFA2CD915FA2C2708F3
:1019F600A5002508F6002208A6002608F7002808F4
:101A0600853167258C310F2D2208A5002508F600A3
:101A160027088631D5268C3108002000B40034080A
:101A2600B0003008B1003408013EB0003008B20002
:101A36003408023EB0003008B3000D18232D242DC3
:101A4600292D3108860087018116302DDF30B00040
:101A5600310886008701300881058D18332D342D15
:101A6600392D3108860087010116402DEF30B00070
:101A7600310886008701300881050D19432D442D54
:101A8600492D3208860087018116502DDF30B000BF
:101A9600320886008701300881058D19532D542D93
:101AA600592D3208860087010116602DEF30B000EF
:101AB600320886008701300881050C1B632D642DD2
:101AC600692D3308860087018116702DDF30B0003E
:101AD600330886008701300881058C1B732D742D11
:101AE600792D3308860087010116802DEF30B0006E
:101AF60033088600870130088105901C832D842DCC
:101B06008A2D3408083E860087018116922DDF3023
:101B1600B0003408083E86008701300881050800B9
:101B26002000C0004008BB003B08BD004008013E45
:101B3600BB003B08BE004008023EBB003B08BF009E
:101B46003D08860087018119A92DAA2DCC2D3D08B7
:101B560086008701811FB02DB12DC62D3D08860058
:101B66008701011BB72DB92D0130BA2D0030BB00FE
:101B76003B08B6004030BC003C08B7000430833157
:101B8600F4238D31CC2DB601B70104308331F42313
:101B96008D3120003E08860087018119D32DD42D72
:101BA600F62D3E0886008701811FDA2DDB2DF02DEC
:101BB6003E0886008701011BE12DE32D0130E42D4F
:101BC6000030BB003B08B6004030BC003C08B70004
:101BD60003308331F4238D31F62DB601B70103307E
:101BE6008331F4238D3120003F0886008701811957
:101BF600FD2DFE2D202E3F0886008701811F042E15
:101C0600052E1A2E3F0886008701011B0B2E0D2E6E
:101C160001300E2E0030BB003B08B6004030BC0041
:101C26003C08B70002308331F4238D31202EB601F3
:101C3600B70102308331F4238D3108002000C00043
:101C460040080D3E86008701403FBC00413FBD0075
:101C56001C08B000B1013008BE003108BF001D08E5
:101C6600B000B1013008B100B0013008BE0731083C
:101C7600BF3D3D083F02031D422E3C083E02031CA9
:101C8600452E462E742E3E08B0003F08B100B20124
:101C9600B30140080D3E8600870100300105B400FF
:101CA600413100300105B5004131FF300105B60074
:101CB6004131FF300105B7003408B0073508B13DA2
:101CC6003608B23D3708B33D40080D3E8600870111
:101CD6003008C03F3108C13F3208C23F3308C33F16
:101CE600B12E0030B0000030B1000130B20000303B
:101CF600B3003E08B4003F08B500B601B70140087E
:101D06000D3E8600870100300105B80041310030E4
:101D16000105B9004131FF300105BA004131FF30FC
:101D26000105BB003808B4073908B53D3A08B63D89
:101D36003B08B73D3408B0073508B13D3608B23D1B
:101D46003708B33D40080D3E860087013008C03F86
:101D56003108C13F3208C23F3308C33F0800FA00CA
:101D6600200055087A06031DB92EBA2EC62E540831
:101D76007606031DBF2EC02EC62E530877060319FE
:101D8600C52EC62E492F7A08F8007808D5007608A1
:101D9600F8007808D4007708F8007808D300392FBF
:101DA6003F30F800780891040D303E009000233053
:101DB60091000E3092009301223094009501C030BC
:101DC600F80078082000960507302D008D0076086B
:101DD600F8007808F00005308B3195238E317708AE
:101DE600F8007808F00006308B3195238E31F530F7
:101DF600F8007808F00007308B3195238E31C0301B
:101E0600F800780820009105492F3F30F80078083F
:101E1600910405302D008D0006302C008D002330F6
:101E26003E0090009101023092002230930094010E
:101E360001309500C030F800780820009605961409
:101E46007608F8007808F00005308B3195238E313E
:101E56007708F8007808F00006308B3195238E312C
:101E6600C030F800780820009105492F7A08F8005C
:101E7600F9017908003A0319412F492F7808003AE9
:101E86000319D32E013A0319082F492F0800200001
:101E9600A00020080F390319512F522F5E2F0D3045
:101EA600593E86008701403FDD00413FDE00423F4C
:101EB600DF00433FE000F730FB007B08D905F73031
:101EC600FB007B08DA05F730FB007B08DB05DC2F1F
:101ED600DC01FF2FF601F60A4030FB007B08F70015
:101EE6000230853167258F311130FB007B082000D9
:101EF600DC00FF2FF601F60A4030FB007B08F700F6
:101F06000230853167258F312430FB007B082000A5
:101F1600DC00FF2FF601F60A4030FB007B08F700D5
:101F26000430853167258F313130FB007B08200076
:101F3600DC00FF2FF6014030FB007B08F700043081
:101F4600853167258F314130FB007B082000DC009E
:101F5600FF2FF6014030FB007B08F7000230853189
:101F660067258F31F6014030FB007B08F700033010
:101F7600853167258F315230FB007B082000DC005D
:101F8600FF2F6430FB007B08DC00FF2FA101F60168
:101F9600F7012108853167258F310130FB007B0869
:101FA6002000A10705302102031CDA2FDB2FCA2FE0
:101FB600FF2F20080F39FB00FC017C08003A0319AB
:101FC600E52FFF2F7B08003A03196B2F013A0319FF
:101FD6006D2F033A03197D2F013A03198D2F073A06
:101FE60003199D2F013A0319AC2F033A0319C42F85
:0A1FF600093A0319C92FFF2F080054
:020000040001F9
:0A000E00EC17FF379F3FFF3FFF3F55
:00000001FF
