:020000040000FA
:020000001028C6
:100008007E1480312000911D0A280B280E2881318A
:10001800CD2180317E1009001128FA01FB01200052
:10002800A901AA01AB01AC01AD01AE017E1020000F
:100038001D287A302100990007309500C0308B00C8
:100048000830910020308C007F308D0023008C0117
:100058008D0122008C017F3024008D0040309400F7
:1000680026309500013096002B30970034309200EE
:100078002000A901FF30A0002008A300A6018030BD
:10008800A00026082A3E860087012008810001304A
:10009800A0002008A60705302602031C542855286E
:1000A8004328F1301502031C5A285B289628F130A2
:1000B80015020318602861285B286F30A00020080B
:1000C80022008C040B3020001502031C6C286D28BC
:1000D80066282308A000200822008C05153020007F
:1000E8001502031C7828792872282408A000200803
:1000F80022008C051C3020001502031C842885284A
:100108007E28BF30A000200822008C052430200063
:100118001502031C902891288A28A030A0002008E6
:1001280022008C05031020000D1C03140030093D2B
:10013800A0000430A035FF3E031D9E282035A100F5
:100148002108AA040D080139A0000430A035FF3E9B
:10015800031DAA282035FF3AA1002108AA0503108B
:100168000D1D03140030093DA0000430A035FF3EEA
:10017800031DBA282035A1002108AB040D0C890CF9
:100188000139A0000430A035FF3E031DC7282035E3
:10019800FF3AA1002108AB0503108D1D03140030A0
:1001A800093DA0000430A035FF3E031DD7282035A7
:1001B800A1002108AC040D0CA000A00C200C0139F2
:1001C800A1000430A135FF3E031DE6282135FF3A82
:1001D800A2002208AC0503108D1E03140030093D4F
:1001E800A0000430A035FF3E031DF6282035A100ED
:1001F8002108AD040D0E890C0139A0000430A0358A
:10020800FF3E031D03292035FF3AA1002108AD0553
:1002180003100D1F03140030093DA0000430A03561
:10022800FF3E031D13292035A1002108AE040D0E41
:10023800890C890C0139A0000430A035FF3E031D4C
:1002480021292035FF3AA1002108AE05FF30A00082
:100258002008A400A701A801200027082A3EA00022
:100268002008A50025088600870160300105A00048
:1002780060302006031D4129422949293F30A0004A
:100288002508860087012008810525088600870142
:10029800811B4F2950295C290130A000270A5529C4
:1002A800A035890B54292008FF3AA1002108A4058C
:1002B8000130A7070030A83D2808803AA000803008
:1002C8002002031D692905302702031C6C296D29AA
:1002D8003029200029080319722973295528BF30AD
:1002E800A0002008A30555281028F4007408F00081
:1002F8000230F036890B7D2970080339F100710846
:10030800F2007408F0000430F036890B8829700870
:100318000739F1007108F30073082A3EF0007008ED
:10032800F500B2295F30F000750886008701700873
:100338008105C5297508860087018117A030F0005E
:1003480075088600870170088105C529C030F0004E
:1003580075088600870170088104C5297208F000B5
:10036800F1017108003A0319BA29C5297008013A40
:1003780003199629033A03199E29013A0319AA2950
:10038800C529F41CC829C929CC292000A901A90A12
:1003980008002000911124001108F8007808F900DD
:1003A800971FD729D829E529941EDB29DC29F229AA
:1003B8001419DF29E029F2297908823109228131CB
:1003C800F229971BE829E929F2291419EC29ED29C2
:1003D800EF29FB01F2298131F6218131240096129F
:1003E800151608007B08F0000430F036890BF9294F
:1003F80070080739F1007108F20072082A3E860079
:1004080087010108240091000800F7007708F6002A
:0E0418007608FB0077088131792182310800D7
:020000040001F9
:04000E00E4FFFFDF2D
:00000001FF
