:020000040000FA
:08000000803102288731E92F4D
:1007980020001E14080020001E100800853189253D
:1007A8008331080020009C019D019C010800F23063
:1007B80021009B008B019701080064008001013132
:1007C800890BE22B0034FE0012001E00FE0BE82B02
:1007D8000034043022008D00023021008D00F030FA
:1007E80020009E0008002400110820004A088431D7
:1007F80013248331F1007108F30073082400910079
:100808000800FF34FF34FF34FF34FF34FF34FF3473
:10081800FF34FF34FF3419341A341B341D34F0000C
:100828000A307002031C192C1A2C1C2C0030212CA5
:1008380070083E3E860087010108080021008C01EF
:100848008D018E0124008C018D010C308E00083042
:10085800900023008C018D018E0108002000911169
:100868002400141D382C392C3D2C8331F723843176
:10087800402C853127258431240015160800F800FE
:10088800750884315F248431F6007608F90075080C
:1008980084317E248431F6007608FA007908F6005F
:1008A8007608F0007A08F7007708F10078088631B2
:1008B800FC2684310800F200672C01307D2C0230C0
:1008C8007D2C00307D2C7208F000F1017108003A8F
:1008D80003196F2C652C7008413A0319632C023AEE
:1008E8000319612C0C3A0319652C1C3A0319612C65
:1008F800652C0800F200862C01309C2C02309C2CC0
:1009080000309C2C7208F000F1017108003A0319BC
:100918008E2C842C7008413A0319802C023A031952
:10092800822C0C3A0319842C1C3A0319802C842C31
:10093800080020001D08F2007208F8001C08F200E8
:100948007208F70078081D06031DAB2CAC2C9D2CF3
:100958007708F200F3017808F400F5017408F5004F
:10096800F40172087407F0007308753DF10008007F
:100978008331DB2384318431222484318531C625B7
:1009880084318431DD2484318331ED238431833112
:10099800D22384312000911DD22CD32CD72C911135
:1009A800843132248431863104268431CB2C803141
:1009B80002280C30F000700821008E04F330F0009B
:1009C800700822008E0523008E010C3024008E0052
:1009D800210091155230240092003630950096017E
:1009E8000A30970012303C00BA001330BB002130A7
:1009F8003D00A2002230A3000800F3000A30730271
:100A0800031C072D082D092D262D7308303E86005E
:100A180087010108F1007108F2007208F1007108FD
:100A2800F00573083E3E8600870172090105F10052
:100A38007108F0047008F10073083E3E86008701D3
:100A480071088100080024001108F4007408F500FA
:100A5800941A2F2D302D342D2000C901C90A4D2D8F
:100A6800200049080319392D3A2D402D7508F40046
:100A78007408CA00C9014D2D7508F4007408F00007
:100A88004A088531012585310130F40074082000B9
:100A9800CA070800F4007408F3000230F336890B23
:100AA800522D73082C0095007408F3000530F335B7
:100AB800FF3E031D5B2D733594007008F300023070
:100AC800F336890B642D730898007008F30005301D
:100AD800F335FF3E031D6C2D733597007108F30045
:100AE8000230F336890B752D73089B007108F300EB
:100AF8000530F335FF3E031D7D2D73359A003B000D
:100B08009401720893009F17080020003E08AC006B
:100B18002C08AE00AF01AF0A0830AC002F0A952DA3
:100B2800AC35890B942D2C082E0503199C2D9D2D71
:100B3800B22D2F353D3E860087010108AC002C08F8
:100B4800AA002F353E3E860087010108AD002D081A
:100B5800AB002F088631A2268531BA2D4F30AC0064
:100B68002C08F5002F0884314324853101302000FA
:100B7800AC002C08AF0705302F02031CC42DC52D6F
:100B8800902D08000130290097003F309400A030D4
:100B9800950090302C0096009030990090309C0081
:100BA80020303B009E009F019601FF309500920186
:100BB800910190309B00F001F101F2010030853184
:100BC8004E2585310F30F500750822008E05F0019D
:100BD800F10101308631FC268531F001F101023046
:100BE8008631FC268531F001F10103308631FC267F
:100BF8008531F001F10104308631FC268531080089
:100C080020004708F9007908FC008D1C0C2E0D2ED9
:100C1800272E84319D2486317108FB007008FA0064
:100C28007B08803AF90083307902031D1D2EE830D5
:100C38007A02031C202E212E242E01302000C70208
:100C48008331D62386317C08031D2B2E2C2E372E7C
:100C5800200048080319312E322E372EC601833161
:100C6800CF238631442E7C082000480203183D2EED
:100C78003E2E442E8331CC2386318331D6238631D0
:100C88007C08F90079082000C8000800F3008B2EC2
:100C98007008F1000230F136890B4F2E71082C00D4
:100CA80095007008F1000530F135FF3E031D582E00
:100CB80071359400A12E7008F1000230F136890BCD
:100CC800622E71082C0098007008F1000530F1358B
:100CD800FF3E031D6B2E71359700A12E7008F100A1
:100CE8000230F136890B752E71082C009B007008B4
:100CF800F1000530F135FF3E031D7E2E71359A0057
:100D0800A12E70083B00930094019F17A12E730831
:100D1800F100F2017208003A0319932EA12E71080E
:100D2800013A03194C2E033A03195F2E013A0319AD
:100D3800722E073A0319852EA12E0800FD00E42E15
:100D48005330FB007B08F5007D088431432486314D
:100D5800F0017D0886314A268631FB2E4330FB00A0
:100D68007B08F5007D0884314324863120002B0858
:100D7800FB007B08F0007D0886314A268631FB2E71
:100D88004130FB007B08F5007D088431432486311F
:100D980020002B08FB007B08F0007D0886314A26DE
:100DA8008631FB2E4F30FB007B08F5007D0884312F
:100DB80043248631F0017D0886314A268631FB2E90
:100DC80020002A08FB00FC017C08003A0319ED2EDC
:100DD800FB2E7B08003A0319A42E013A0319B22E00
:100DE800033A0319C42E013A0319D62EFB2E080024
:100DF8002000A400023070060319032F042F072FC8
:100E0800A001A101122F2408393E8600870101089C
:100E1800F200F3017208A0007308A1002008F20094
:100E28007208A5000230710603191B2F1C2F1F2FF3
:100E3800A201A3012A2F2408393E86008701010850
:100E4800F200F3017208A2007308A3002208F2005E
:100E58007208A6007008031D322F342F0130352F79
:100E68000030F2007208A7007108031D3C2F3E2FC6
:100E780001303F2F0030F2007208A800D22F250859
:100E88003D009000200026083D00910022000C083B
:100E9800F20072082000A900FC30F2007208A905CF
:100EA80028352707F2007208A904290822008C00B7
:100EB800E82F25083D009200200026083D009300F9
:100EC80022000C08F20072082000A900F330F2009A
:100ED8007208A9052708F2000230F235890B712F34
:100EE8002808F3000230F335FF3E031D772F7335D2
:100EF8007207F4007408A904290822008C00E82F5E
:100F080025083D009400200026083D009500220099
:100F18000C08F20072082000A900CF30F200720815
:100F2800A9052708F2000430F235890B982F280804
:100F3800F3000430F335FF3E031D9E2F733572070F
:100F4800F4007408A904290822008C00E82F250859
:100F58003D009700200026083D00960022000C085E
:100F6800F20072082000A9003F30F2007208A905BB
:100F78002808F2000630F235890BBF2F2708F30046
:100F88000630F335FF3E031DC52F73357207F40095
:100F98007408A904290822008C00E82F2408F2000C
:100FA800F3017308003A0319DA2FE82F7208013A9F
:100FB8000319432F033A03195D2F013A0319842FAC
:100FC800073A0319AB2FE82F080005308400843056
:100FD800850030308600003087000E308331E723EB
:100FE80087313E308400003085000D308331E123A5
:0E0FF800873120008431BC2CE83403342934C6
:020000040001F9
:04000E00E4FFFFDF2D
:00000001FF
