:020000040000FA
:040000008031112812
:100008007E1480312000911D0A280B280F28911199
:100018008431682480317E10090080311328EF3044
:1000280084008430850076308600003087000430F4
:100038008431D8248031C5308400843085004B3029
:100048008600003087000A308431D82480313E3061
:100058008400003085000D308431DE2480317E102C
:1000680020008331B62B2000A90002302006031996
:100078003E283F284228A501A6014D282908753E9B
:10008800860087010108A200A3012208A500230811
:10009800A6002508A2002208AA000230210603199A
:1000A800562857285A28A701A80165282908753E07
:1000B800860087010108A200A3012208A7002308DF
:1000C800A8002708A2002208AB002008031D6D28FD
:1000D8006F28013070280030A2002208AC002108E7
:1000E800031D7728792801307A280030A2002208D9
:1000F800AD000D292A083D00900020002B083D0086
:10010800910022000C082000A2002208AE00FC305A
:10011800A2002208AE052D352C07A2002208AE0445
:100128002E0822008C0023292A083D009200200076
:100138002B083D00930022000C082000A200220892
:10014800AE00F330A2002208AE052C08A20002304F
:10015800A235890BAC282D08A3000230A335FF3E39
:10016800031DB22823352207A4002408AE042E0854
:1001780022008C0023292A083D00940020002B0827
:100188003D00950022000C082000A2002208AE00C5
:10019800CF30A2002208AE052C08A2000430A235F8
:1001A800890BD3282D08A3000430A335FF3E031D77
:1001B800D92823352207A4002408AE042E082200DB
:1001C8008C0023292A083D00970020002B083D00B9
:1001D800960022000C082000A2002208AE003F3042
:1001E800A2002208AE052D08A2000630A235890B10
:1001F800FA282C08A3000630A335FF3E031D00296A
:1002080023352207A4002408AE042E0822008C00FF
:1002180023292908A200A3012308003A0319152954
:1002280023292208013A03197E28033A031998283A
:10023800013A0319BF28073A0319E62823290800B9
:100248002000A3006C292008A1000230A136890BE8
:100258002A2921082C00950020002008A10005303B
:10026800A135FF3E031D342921352C009400822935
:100278002008A1000230A136890B3F2921082C0053
:10028800980020002008A1000530A135FF3E031D7D
:10029800492921352C00970082292008A100023025
:1002A800A136890B542921082C009B002000200826
:1002B800A1000530A135FF3E031D5E2921352C0024
:1002C8009A00822920083B00930094019F178229F5
:1002D8002308A100A2012208003A031974298229DF
:1002E8002108013A03192729033A03193C29013A3D
:1002F80003195129073A03196629822908002000A1
:10030800B900C8295330B7003708AF00390884311D
:10031800382481312000A00139088131242181311C
:10032800DE294330B7003708AF0039088431382454
:10033800813120003608B7003708A000390881311C
:1003480024218131DE294130B7003708AF00390850
:1003580084313824813120003608B7003708A000DE
:100368003908813124218131DE294F30B70037081F
:10037800AF0039088431382481312000A0013908C0
:10038800813124218131DE293508B700B8013808C8
:10039800003A0319D029DE293708003A03198629BB
:1003A800013A03199529033A0319A729013A0319B0
:1003B800B929DE29080020004708A9002908AC004F
:1003C8008D1DE729E829082A843119248131200064
:1003D8002108AB002008AA002B08803AA900833026
:1003E8002902031DF929E8302A02031CFC29FD29EA
:1003F800052A200047080319022A032A052A013082
:10040800C7028431EA24813120002C08031D0D2AFB
:100418000E2A182A48080319122A132A182AC6016C
:100428008431F7248131242A2C08480203181D2A14
:100438001E2A242A8431FA2481318431EA24813124
:1004480020002C08A9002908C80008002000A400E2
:100458002408A3000230A336890B2F2A23082C0076
:10046800950020002408A3000530A335FF3E031D96
:10047800392A23352C00940020002008A3000230DC
:10048800A336890B442A23082C0098002000200852
:10049800A3000530A335FF3E031D4E2A23352C004B
:1004A800970020002108A3000230A336890B592A9F
:1004B80023082C009B0020002108A3000530A33549
:1004C800FF3E031D632A23352C009A003B0094014C
:1004D800200022083B0093009F17080001302900E4
:1004E80097003F309400A030950090302C00960083
:1004F8009030990090309C0020303B009E009F0176
:100508009601FF3095009201910190309B002000E8
:10051800A001A101A201003082312A2282310F30CC
:100528002000AF002F0822008E052000A001A101A5
:1005380001308031372082312000A001A101023032
:100548008031372082312000A001A10103308031A1
:10055800372082312000A001A101043080313720EA
:100568008231080020003E08BA003A08BC00BD01EC
:10057800BD0A0830BA003D0AC22ABA35890BC12A19
:100588003A083C050319C92ACA2ADF2A3D353D3EE7
:10059800860087010108BA003A08B5003D353E3E9D
:1005A800860087010108BB003B08B6003D08813181
:1005B80083218231E72A4F30BA003A08AF003D085C
:1005C80084313824823101302000BA003A08BD074E
:1005D80005303D02031CF12AF22ABD2A0800240036
:1005E80011082000A4002408A5002400941AFD2A5C
:1005F800FE2A022B2000C901C90A1B2B200049082A
:100608000319072B082B0E2B2508A4002408CA0061
:10061800C9011B2B2508A4002408A0004A0883311F
:100628001C23823101302000A4002408CA070800D6
:100638002000A3000A302302031C232B242B252B84
:10064800422B23084B3E860087010108A1002108A0
:10065800A2002208A1002108A00523083E3E86002A
:10066800870122090105A1002108A0042008A10092
:1006780023083E3E860087012108810008002400E7
:100688001108F4007408F500941A4B2B4C2B502BCE
:100698002000C901C90A692B200049080319552BF4
:1006A800562B5C2B7508F4007408CA00C901692B25
:1006B8007508F4007408F0004A08833190238331E8
:1006C8000130F40074082000CA0708000C3020002C
:1006D800A000200821008E04F3302000A00020088C
:1006E80022008E0523008E010C3024008E0021008C
:1006F80091155230240092003630950096010B3047
:10070800970012303C00BA001330BB0021303D0086
:10071800A2002230A3000800F3000A307302031C71
:10072800962B972B982BB52B73084B3E8600870189
:100738000108F1007108F2007208F1007108F00573
:1007480073083E3E8600870172090105F1007108B1
:10075800F0047008F10073083E3E860087017108B6
:1007680081000800240015088431E4248331843191
:100778008924833182317222833183316A23833120
:100788008431CF2483318431F32483312000911DB7
:10079800CE2BCF2BD32B9111843157248331813128
:1007A800DF218331C72B803111282000A200E22BE2
:1007B8000130F82B0230F82B0030F82B2208A0006B
:1007C800A1012108003A0319EA2BE02B2008413A3D
:1007D8000319DC2B023A0319DE2B0C3A0319E02B20
:1007E8001C3A0319DC2BE02B08002000A200022C85
:1007F8000130182C0230182C0030182C2208A000C8
:10080800A1012108003A03190A2C002C2008413ABA
:100818000319FE2B023A0319FC2B0C3A0319002C7E
:100828001C3A0319FC2B002C080020001D08A2000C
:100838002208A8001C08A2002208A70028081D06F4
:10084800031D272C282C192C2708A200A3012808EF
:10085800A400A5012408A500A40122082407A000DB
:100868002308253DA10008002000B2002F0883318D
:10087800F92384312000B0003008B3002F088331F9
:10088800D92384312000B0003008B4003308B00008
:100898003008A0003408B1003108A10032088031C6
:1008A800372084310800200091112400141D5D2C8C
:1008B8005E2C622C843199248431652C8231F32298
:1008C8008431240015160800200091112400141DFD
:1008D8006E2C6F2C732C8431B7248431762C8331A1
:1008E800432384312400151608002000A0000A3094
:1008F8002002031C802C812C832C0030882C20089B
:100908003E3E860087010108080021008C018D0108
:100918008E0124008C018D010C308E00083090006F
:1009280023008C018D018E0108002400110820008D
:100938004A088431792484312000A1002108A300C9
:100948002308240091000800F0000A307002031CFC
:10095800AE2CAF2CB12C0030B62C70083E3E860071
:100968008701010808002400110820004A08843182
:10097800A8248431F1007108F30073082400910061
:100988000800FF34FF34FF34FF34FF34FF34FF34F2
:10099800FF34FF34FF3422008D01C83021008D0060
:1009A800F03020009E000800FE0012001E00FE0B22
:1009B800D92C0034640080010131890BDF2C00340C
:1009C800F23021009B008B019701080020009C0158
:1009D8009D019C01080019341A341B341D348231DE
:1009E800B6228431080020001E10080020001E14C2
:0809F8000800E834033429343F
:020000040001F9
:04000E00E4FFFFDF2D
:00000001FF
